:020000040800F2
:10000000B005002001010008031D0008F1180008D8
:10001000011D0008B5080008752100080000000057
:100020000000000000000000000000004F1D00085C
:10003000AD0A0008000000004D1D0008ED1D00087D
:100040001B0100081B0100081B0100081B01000820
:100050001B0100081B0100081B0100081B01000810
:100060001B0100081B0100081B0100081B01000800
:100070001B0100081B0100081B0100081B010008F0
:100080001B0100081B0100081B0100081B010008E0
:100090001B0100081B0100081B0100081B010008D0
:1000A0001B0100081B0100081B0100081B010008C0
:1000B0001B0100081B010008951E00081B01000819
:1000C0001B0100081B0100081B0100081B010008A0
:1000D0001B0100081B0100081B0100081B01000890
:1000E0001B0100081B0100081B010008DFF80CD0F1
:1000F00000F082FB0048004709240008B0050020FA
:100100000648804706480047FEE7FEE7FEE7FEE7B1
:10011000FEE7FEE7FEE7FEE7FEE7FEE74D1E00080E
:10012000ED000008202A04DB203A21FA02F0002129
:10013000704721FA02F3D040C2F1200291400843F7
:1001400019467047D2B201E000F8012B491EFBD2DC
:1001500070470022F6E710B513460A4604461946D2
:10016000FFF7F0FF204610BDF0B480EA0102D40F83
:100170004200B2EB410F02D20246084611464A0045
:1001800042D0C30DDDB2C1F3C752AD1A202D35DA0E
:10019000C1F3160141F4000204B15242C5F1200638
:1001A00002FA06F12A411044B3EBD05F23D0C4B168
:1001B000012DA0EBC35009DCF0BC4FF0004202EA75
:1001C000C352DBB200F5000000F062BA400000F15B
:1001D000807000EBC350A0F1807040EAD1704900FC
:1001E00009E0490841EAC071A0EBC35000F50000E6
:1001F000400800EBC350F0BC00F041BA614201225C
:1002000002EB4101001BF6E7F0BC704781F00041B2
:10021000AAE780F00040A7E780EA010210B502F0EB
:100220000043400022D04A001FD0010E01EB1261B2
:10023000C0F35600C2F3560240F4000042F400023C
:10024000A0FB022000047F39140400D0401C50EAB7
:10025000124001D44000491EC2B20C0604EBD0107B
:10026000401C4008802A02D003E0002010BD20F08E
:100270000100002900DA0020184310BD30B480EAE4
:10028000010202F0004530F0004221F0004013D09E
:1002900090B1C30DD40DC2F31601C0F31600E41AD9
:1002A00041F4000140F400027D34914201D3641C0A
:1002B00000E04900002C02DA30BC002070474FF407
:1002C00000000023914201D3891A034340084FEAFA
:1002D0004101F7D151B1914202D14FF0004105E007
:1002E00002D24FF0010101E06FF0010103EBC450B5
:1002F000284430BC00F0C3B9420005D0C0F3C75257
:100300005242914201DC0020704700EBC15070471F
:100310002DE9FE4F804681EA0300C00F0C46009095
:1003200021F0004123F00045B8EB0200A94105D2BD
:100330004046214690461C460B46024623F00040AC
:10034000104347D0270DC7F30A00C3F30A510290A8
:10035000401A019040286BDAC3F3130040F4801B6D
:100360000098924620B10023D2EB030A63EB0B0BFB
:1003700001985946C0F14002504600F05FF9064628
:100380000D4650465946019A00F067F910EB0800F7
:100390006141002487EA115284EAE7731A4340D08E
:1003A000009A62B3019A012A4FEA075215DC001B3A
:1003B00061EB02014FF0004202EA0752CDE9004230
:1003C000001C41F5801132462B4600F09EF903B027
:1003D000BDE8F08F40462146F9E7001B61EB0201C2
:1003E000001C41F5801300185B412018A2F500178E
:1003F00047EB030140EAD570B6196D4111E06D0875
:100400004FEA360645EAC0754FEA0752001B61EB1A
:100410000201001C41F5801149084FEA3000001923
:10042000514132462B4603B0BDE8F04F00F05EB9B3
:100430000098012240000023D0EB020263EBE0733E
:10044000009821464FEAE074B8EB000061EB04012C
:10045000E9E783F000435BE781F0004158E72DE9CD
:10046000FE4F81EA030404F0004421F000410094AF
:100470004FF0000B23F0004350EA01045ED052EA33
:1004800003045BD0C3F30A54C1F30A552C44A4F20D
:10049000F3340194A0FB0254C1F3130141F4801121
:1004A000C3F3130343F4801301FB024400FB034E28
:1004B000840A970A44EA815447EA8357A4FB0768F1
:1004C00002958D0A05FB07854FEA932C04FB0C541B
:1004D0002705029D4FEA065847EA1637B5EB08058F
:1004E0006EEB070C870E920E47EA811742EA8312E1
:1004F000A7FB0201B6EB0B0164EB00042B0D43EAF2
:100500000C335E1844EB1C50DA465146E7FB0201FF
:10051000C5F313044FEA0B3343EA14534FEA043292
:10052000019C43EA0603A4F10C040294009CCDE96B
:1005300000B400F0EAF803B0BDE8F08F00200146F7
:10054000F9E770B521F0004303430CD0C1F30A551D
:100550000024D5EB040564EB0403D617AD1AB341B0
:1005600002DB0020014670BD201841EB025170BD36
:10057000C10F80EAE0700844CA079623002100F00A
:1005800087B896230022114600F082B820F0004080
:10059000C10DC0F3160040F400007F2901DA0020ED
:1005A0007047962903DCC1F19601C840704796391F
:1005B0008840704700F0004230F000400AD0C10D82
:1005C00001F56071C0F3160042EA0151C20840070C
:1005D0001143704700200146704701F0004330B4DA
:1005E00021F0004150EA010206D00A0DA2F5607226
:1005F000C1F31301002A02DC30BC00207047440F15
:1006000044EAC104C100E01830BC00EBC25000F065
:1006100036B80000002801DBC0F10040002901DBF2
:10062000C1F1004181427047002801DBC0F1004068
:10063000002901DBC1F1004188427047202A04DB18
:10064000203A00FA02F1002070479140C2F12003E5
:1006500020FA03F3194390407047202A06DBCB179A
:10066000203A41FA02F043EAE07306E041FA02F36D
:10067000D040C2F12002914008431946704700293A
:10068000A8BF7047401C490008BF20F00100704718
:1006900010B4B0FA80FC00FA0CF050EA010404BF78
:1006A00010BC704749B1CCF1200421FA04F411FACE
:1006B0000CF118BF012121430843A3EB0C01CB1D12
:1006C0004FEA00614FEA102042BF002010BC704783
:1006D00000EBC35010440029A4BF10BC7047401C5D
:1006E000490008BF20F0010010BC704710B5141E6F
:1006F00073F1000408DA401C41F1000192185B41DB
:100700001A4301D120F0010010BD2DE9F04D9246B1
:100710009B4611B1B1FA81F202E0B0FA80F22032C8
:100720009046FFF78BFF04460F4640EA0A0041EA75
:100730000B0153465A46084313D0114653EA0100B1
:1007400019D0C8F140025046FFF7ECFC05460E46B2
:10075000504659464246FFF771FF084305D0012035
:1007600004E020463946BDE8F08D0020054346EA06
:10077000E0762C4337430A986305E40AA0EB0800AF
:100780000022FD0A44EA47540A3002D500200146FF
:10079000E9E7010510196941DDE9084500196941DA
:1007A000BDE8F04DA2E710B500F0004420F0004095
:1007B000C20DC0F3160040F400007F2A07DA7D2A3C
:1007C00000DA7D22763A00FA02F1002008E0962A4B
:1007D00009DCA2F1760100FA01F1C2F19602D040E3
:1007E000FFF74DFF01E0963A9040002C00D04042C8
:1007F00010BD002070470000064C074D06E0E06881
:1008000040F0010394E8070098471034AC42F6D357
:10081000FFF770FCD82B0008F82B000810B501F08A
:1008200015F901F0C3F80849012001F0C5F806499F
:10083000002001F0C1F8054800F00AFEBDE81040B4
:10084000034800F005BE0000F5180008D4000020A1
:1008500014010020F8B54FF40065144E144C01F05B
:10086000B1F800F0C7F8201D00F0F8F8606801F05A
:100870002DF9D4E90101FFF7D7FE01D2002205E0EE
:10088000D4E90101FFF7C6FE04D201222946304611
:1008900000F019FAA069FFF779FE0090A3680C3404
:1008A00094E8070001F02EFAF8BD000000080140AE
:1008B00004000020FEE700002DE9FC5F00F008FACC
:1008C000354C0546A06A2168281A884262D36168BF
:1008D000E068FFF79BFC2061216A804606460F46D0
:1008E0000191FFF793FCA061009031466069FFF72A
:1008F0003BFC8146606101213846FFF7FDFC314633
:10090000FFF787FC616AFFF72FFC244E0146E06188
:10091000B068FFF781FCFFF74DFE83460F4648465F
:10092000FFF748FE81468A467068FFF743FE4FF0A6
:10093000FF32FFF706FE4A465346FFF790FD824618
:10094000894630680099FFF767FCFFF733FE52468F
:100950004B46FFF7DDFC5A463B46FFF7D9FC0646FF
:100960000F46A068FFF726FE32463B46FFF7D0FC55
:10097000FFF733FE0A49A060884201DDA16004E070
:1009800010F1FF4F01D30020A0600198C4F820802F
:10099000C4E90905BDE8FC9FA0000020A4010020D7
:1009A00000C0794470B501F0A5FC114D4FF480747E
:1009B00000222146284600F086F94FF4FA7000F034
:1009C00077F801F087FC502000F072F821462846A5
:1009D00000F074F94FF4C8710028084603D000F005
:1009E00067F8012070BD00F063F8002070BD0000C2
:1009F0000008014070B5184C2078D8B101281FD0EC
:100A0000022816D100F064F96168401AB0F5487FF9
:100A10000FD9CC2001F02CFCBE2001F029FC01F004
:100A2000F7FB054601F0F4FB45EA0020608000205A
:100A3000207070BDFFF7B6FF0028FAD10120F7E75C
:100A4000CC2001F015FC442001F012FC02202070A3
:100A500000F03EF9606070BD200000202DE9F047F5
:100A600080460020104C0126051F4FF080492F0CB6
:100A7000A060608830420AD02846FFF779FD014621
:100A8000484601F0D3FCA168FFF76EFBA0606D1C27
:100A90006DB207EA4606072DEBDB6088FFF771FDB4
:100AA000C8F80000BDE8F087200000207047000073
:100AB00001B5074807490068B0FBF1F000994843C9
:100AC0000090411E009101D30846FAE708BD0000DE
:100AD0000000002040548900FEE700002DE9F84F97
:100AE000DFF8B891002409F1040A0AF1040B234647
:100AF0000F270BF1040EC9E00125A5402A40AA42A8
:100B00007DD1674ED1F804C0ACEB0608B44532D0B5
:100B100014DCBCF1030F3AD009DCBCF1000F2AD081
:100B2000BCF1010F1CD0BCF1020F31D11DE0BCF1B2
:100B3000110F17D0BCF1120F2AD119E0B8F5881F98
:100B400019D006DCB8F5803F15D0B8F5801F1FD14D
:100B500011E0B8F5001F0ED0B8F5041F18D10AE057
:100B6000CB6815E0CB681B1D12E0CB6808330FE0A3
:100B7000CB680C330CE08B682BB1012B4FF00803D2
:100B800003D0456104E0042302E0056100E0002396
:100B9000FF2A01D8064601E000F104064FEA840569
:100BA00001D9A5F12005D6F8008007FA05FC28EA4E
:100BB0000C0803FA05F548EA0508C6F800804D68F8
:100BC000ED0062D5374DAE6946F00106AE61AD6904
:100BD00024F0030605F001050095334D06EB050CE6
:100BE000DCF80850A607360F07FA06F825EA0805CC
:100BF000DFF8B880404503D14FF0000817E044E02B
:100C0000DFF8AC80404502D14FF001080FE0DFF87B
:100C1000A480404502D14FF0020808E0DFF8988038
:100C2000404502D14FF0030801E04FF0040808FAF4
:100C300006F848EA0508CCF808804D68D9F8006045
:100C4000ED034D4601D5164300E096432E604D68F6
:100C5000DAF80060AD03554601D5164300E096432F
:100C60002E604D68DBF80060ED025D4601D516434D
:100C700000E096432E604D68DEF80060AD027546D8
:100C800001D5164300E096432E60641C0D682A4689
:100C9000E5407FF431AFBDE8F88F0000000401406B
:100CA0000000111000100240000001400008014047
:100CB000000C014000100140001401408068084011
:100CC00000D0012070470AB1016170470904FBE7B9
:100CD0000148806870470000940000200248816845
:100CE000027811448160704794000020074810B5D5
:100CF000016841F010010160032000F075F8002048
:100D000000F006F800F024F8002010BD002002409A
:100D100070B50D4D04464FF47A712878B1FBF0F0B0
:100D20000A490968B1FBF0F000F0ECFA48B9102C60
:100D300007D200222146501E00F036F800206C60D9
:100D400070BD012070BD0000940000200000002054
:100D50000C4808B5816941F001018161816901F0A8
:100D600001010091C16941F08051C161C06900F089
:100D7000805000900448416821F0E06141F000712A
:100D8000416008BD0010024000000140002809DB5E
:100D900000F01F02012191404009800000F1E02095
:100DA000C0F8001170470000F0B40E4B1B680C46F1
:100DB000C3F30223C3F10705042D00D90425191D2F
:100DC000072901D2002300E0DB1E012606FA05F107
:100DD000491E214099409E40761E16403143F0BC8A
:100DE00001F0DCB90CED00E0064900F007020868EC
:100DF0004FF6FF03184040EA0220034A1043086000
:100E0000704700000CED00E00000FA052DE9F04706
:100E10000F46050061D0434E306800F00700B8422D
:100E200009D2306820F0070038433060306800F0A5
:100E30000700B84251D128683B4C810712D54007C2
:100E400003D5606840F4E06060602878000703D54F
:100E5000606840F4605060606068A96820F0F0004D
:100E6000084360602878C00728D06868012810D03F
:100E70002168022810D0890700292EDA616821F044
:100E8000030101436160FFF723FF804641F2883987
:100E90000DE021688903EFE78901EDE7FFF718FF0F
:100EA000A0EB0801494502D90320BDE8F08760683E
:100EB000696800F00C00B0EB810FEFD1306800F0F2
:100EC0000700B8420BD9306820F007003843306083
:100ED000306800F00700B84201D00120E5E728782B
:100EE000400705D56068E96820F4E0600843606069
:100EF0002878000706D56068296920F4605040EA28
:100F0000C100606000F038F86168084AC1F303115D
:100F1000515CC8400649086006480068FFF7F8FEC3
:100F20000020C2E700200240001002404C2A0008C6
:100F30000000002098000020044805490068496826
:100F4000044AC1F30221515CC840704700000020F0
:100F5000001002405C2A00080448054900684968FE
:100F6000044AC1F3C221515CC84070470000002010
:100F7000001002405C2A000812A185B00FC98DE85C
:100F80000F0014A0144A006804905168134801F03F
:100F90000C03042B10D0082B0ED1C1F38343C903DB
:100FA0001DF803000AD5516804AAC1F34041515C01
:100FB0000A4A5043B0FBF1F005B070470849484376
:100FC000FAE7000002030405060708090A0B0C0DE6
:100FD0000E0F1010010200000010024000127A00F3
:100FE00000093D002DE9F84F040070D02078C04D75
:100FF000C00749D06868C0F38100012807D068683D
:10100000C0F38100022809D16868C00306D52868AA
:10101000800339D560680028E7D035E06068B0F516
:10102000803F0BD010B1B0F5A02F11D0286820F46C
:1010300080302860286820F4802002E0286840F48E
:1010400080302860606890B1FFF742FE06460AE0F3
:10105000286840F480202860F0E700BFFFF738FEE2
:10106000801B642873D828688003F7D50CE0FFF74D
:101070002FFE064605E000BFFFF72AFE801B64280E
:10108000F0D828688003F7D420789A4E80074FF074
:1010900001094FF0000839D5686810F00C0F07D02F
:1010A0006868C0F38100022809D16868C00306D4CB
:1010B0002868800714D52069012808D110E020692C
:1010C000B0B1C6F80090FFF703FE074605E00AE15D
:1010D000FFF7FEFDC01B0228C4D828688007F7D59B
:1010E0002868616920F0F80040EAC10028600DE03E
:1010F000C6F80080FFF7ECFD074604E0FFF7E8FDC7
:10110000C01B022823D828688007F7D4207800075E
:101110002CD57948A169D9B1C0F80090FFF7D8FD66
:10112000074604E0FFF7D4FDC01B02280FD8686A09
:101130008007F7D571484FF4FA510068B0FBF1F021
:10114000009000BF0098411E0091FAD20EE080E0AE
:10115000C0F80080FFF7BCFD074604E0FFF7B8FDCC
:10116000C01B022875D8686A8007F7D4207840072A
:1011700060D5E8690027C00008D4E86940F08050D5
:10118000E861E869012700F0805000905C48016840
:10119000C90513D40168834641F480710160FFF7EB
:1011A00097FD824606E000BFFFF792FDA0EB0A0024
:1011B00064284ED8DBF80000C005F5D5E0680128AA
:1011C0000AD008B1052813D0286A20F0010028624F
:1011D000286A20F0040002E0286A40F0010028623A
:1011E000E06841F2883B98B1FFF772FD82460BE060
:1011F000286A40F004002862EEE700BFFFF768FDB0
:10120000A0EB0A0159455AD8286A8007F6D50CE0A8
:10121000FFF75EFD824605E0FFF75AFDA0EB0A01ED
:1012200059454CD8286A8007F6D41FB1E86920F0E8
:101230008050E861E06988B36968C1F381010229DF
:1012400044D00228C6F8608004D0FFF741FD044670
:1012500038E034E0FFF73CFD074604E0FFF738FDD7
:10126000C01B02282BD828688001F7D4206AB0F56B
:10127000803F05D16868A16820F4003008436860A9
:10128000D4E908010843696821F4741108436860CF
:10129000C6F86090FFF71CFD044606E025E000BF9D
:1012A000FFF716FD001B022809D828688001F7D532
:1012B0001BE000BFFFF70CFD001B022802D9032032
:1012C000BDE8F88F28688001F4D40EE00128F7D03B
:1012D0006868226A00F48031914204D1616A00F4A6
:1012E0007010884201D00120EAE70020E8E7000002
:1012F00000100240000042428004424200000020F0
:101300000070004010B5401EB0F1807F01D3012075
:1013100010BD4FF0E02460610F21601700F03EFF28
:101320000020A06107202061002010BD7047704799
:1013300010B590F83C20012A22D0012280F83C20F0
:10134000CA688C6822F4407222434C6822F480629E
:1013500022430C6822F4006222430C6922F480527A
:1013600022434C6922F400522243C969002322F42B
:1013700080420A4301684A6480F83C30002010BD76
:10138000022010BD70B590F83C20012A19D001242C
:1013900000F83C4F0222427050F83C3C5A689D686D
:1013A00022F070060A684968324325F08005294317
:1013B0005A6050F83C2C916044700021017008463E
:1013C00070BD022070BD10B5040003D094F83D003C
:1013D00010B107E0012010BD002084F83C00204639
:1013E00000F00CF8022084F83D00211D206800F078
:1013F00057FD012084F83D00002010BD08B5114ABA
:1014000001681148914208D1816941F4006181610C
:10141000806900F40060009008BD0C4A9142FBD145
:10142000C16941F00401C161C069002200F00400FB
:10143000009011461E20FFF7B7FCBDE808401E20B3
:10144000FFF7A4BC002C014000100240000800403F
:101450000168CA6842F00102CA600068816801F050
:101460000701062903D0016841F001010160002055
:10147000704770B5044690F83C00012817D001254C
:1014800084F83C50022084F83D002068826822F0F5
:10149000770222F47F4282600868502830D00DDC49
:1014A00020284DD005DC98B310283BD148E002201D
:1014B00070BD302844D0402834D139E0602828D08D
:1014C000702806D0B0F5805F2CD0B0F5005F29D130
:1014D0000AE0CB68D1E90121206800F017FD2068FF
:1014E000816841F0770109E0CB68D1E901212068EA
:1014F00000F00CFD2068816841F48041816011E0BA
:10150000CA684968206800F0B5FD5021206807E0EE
:1015100016E0CA684968206800F0BDFD60212068B7
:1015200000F0FEFC84F83D50002084F83C0070BDC3
:10153000CA684968206800F09DFD40212068EFE7F7
:10154000226801461046EBE7704770B50446006814
:1015500001694FF00005C943890715D4C168C94323
:10156000890711D4E91E0161012020772068806974
:101570008007204602D0FFF7E7FF04E000F0BEF846
:10158000204600F040F9257720680169C9434907E2
:1015900017D4C168C943490713D46FF0040101612E
:1015A000022020772068806910F4407F204602D016
:1015B000FFF7CAFF04E000F0A1F8204600F023F98D
:1015C000257720680169C943090716D4C168C94352
:1015D000090712D46FF00801016104202077206808
:1015E000C0698007204602D0FFF7AEFF04E000F09C
:1015F00085F8204600F007F9257720680169C9437E
:10160000C90617D4C168C943C90613D46FF01001C5
:101610000161082020772068C06910F4407F2046CF
:1016200002D0FFF791FF04E000F068F8204600F0D8
:10163000EAF8257720680169C943C90708D1C1685C
:10164000C943C90704D1891E0161204600F0DCF8B6
:1016500020680169C943090609D4C168C94309065C
:1016600005D46FF0800101612046FFF75FFE20681E
:101670000169C943490609D4C168C943490605D46B
:101680006FF040010161204600F0C8F82068016950
:10169000C94389060BD4C168C943890607D46FF0D2
:1016A000200101612046BDE87040FFF740BE70BDDB
:1016B00000B585B00021009101910291039100686D
:1016C0000B49884212D10B48816941F008018161C0
:1016D0008069694600F0080004904FF400400090D3
:1016E0000220019003900448FFF7F8F905B000BD0F
:1016F000002C014000100240000C0140704770B502
:10170000044690F83C000D4601280DD0012684F8CF
:101710003C60022084F83D0042B1042A18D0082A17
:101720002AD00C2A4DD139E0022070BD206800F08B
:10173000FFFB2068816941F00801816120688169AF
:1017400021F004018161206881692A69114311E057
:10175000206800F015FC2068816941F40061816116
:101760002068816921F480618161206881692A692A
:1017700041EA0221816124E0206800F02DFC20680C
:10178000C16941F00801C1612068C16921F004010B
:10179000C1612068C1692A69114311E0206800F025
:1017A00047FC2068C16941F40061C1612068C169DA
:1017B00021F48061C1612068C1692A6941EA02217E
:1017C000C16184F83D60002084F83C0070BD10B514
:1017D000040003D094F83D0010B107E0012010BDD3
:1017E000002084F83C00204600F00CF8022084F829
:1017F0003D00211D206800F053FB012084F83D00CE
:10180000002010BD7047704700680349884201D12D
:1018100000F01EB97047000000080040704770B526
:10182000040004D094F83900002510B106E001202E
:1018300070BD84F83850204600F022F8242084F847
:1018400039002068C16821F40051C160204600F0D1
:1018500035FC2068016921F49041016120684169EB
:1018600021F02A0141612068C16841F40051C16042
:10187000E563202084F8390084F83A00002070BD28
:1018800030B585B00024009401940294039400685C
:101890001449884224D11448816941F4804181610E
:1018A000816901F480410491816941F00401816101
:1018B00080690E4D00F0040004904FF40070009019
:1018C000022001900320039069462846FFF706F99D
:1018D0002815CDE90004694628460294FFF7FEF872
:1018E00005B030BD00380140001002400008014042
:1018F000FEE7000070B52B4C2278B8B1012850D11A
:10190000012941D002294CD1012A4AD16088401EC8
:1019100080B26080642801D3642060801FFA80F068
:10192000FEF72FFEBDE8704000F0C8B80020032984
:101930000DD00429E4D1012A33D12070D4F8080055
:1019400000F0BCF80020BDE8704000F0B1B8164DC2
:1019500052B1012A25D120706088FEF712FE294677
:10196000FEF78CFCA060EBE7012020702946A06800
:10197000FEF752FCFEF70AFE80B26080FEF701FE21
:1019800000F09CF8FF20DEE7012A0AD160884FF4BE
:101990004871401C80B26080884200D361806088BA
:1019A000BEE770BD04000020000020410149002076
:1019B000087070472C000020014A42F82010704740
:1019C000340000202DE9F0411F4F1E4E0025A7F1E5
:1019D000100400BF36F8151057F82500FFF76EF910
:1019E00005F1010518B1EDB2042DF3D324E015F093
:1019F000FF0121D0144D2078083D98B1FFF768F918
:101A00006168401AB0F57A7F14D9FFF761F9A0F246
:101A1000523060606A68002A0CD02178BDE8F0413D
:101A20000120104721702A680AB100209047FFF773
:101A30004FF96060BDE8F08120780028FAD00020DE
:101A40002070F7E7642A00083C000020002070475F
:101A500070B5154E154D0024002236F8141055F8B7
:101A60002400FFF730F9641CE4B2082CF4D30F4CC7
:101A7000283C207836F810102078002255F82000F5
:101A8000FFF721F92078042802D200F073FC01E06E
:101A900000F042FC2078401C20702078082801D3F8
:101AA0000020207070BD00007C2A00087400002017
:101AB00001494870704700004C00002010B5FEF747
:101AC00065FD0149488010BD4C00002010B5FEF7AF
:101AD0005DFD0149888010BD4C0000202DE9F043D8
:101AE00085B00024294800940194029403948169EC
:101AF00041F020018161816901F020010491816937
:101B000041F004018161816901F00401049181695E
:101B100041F0080181618069DFF8748000F00800FD
:101B200040F6FF050490002229464046FFF7CBF817
:101B3000DFF8609047F60747002239464846FFF72E
:101B4000C2F80095022601250396CDE901546946A5
:101B50004046FEF7C3FF00970396CDE9015469465E
:101B60004846FEF7BBFF2802CDE90004694640461F
:101B70000294FEF7B3FF7820CDE900046946484699
:101B80000294FEF7ABFF05B0BDE8F0830010024001
:101B900000080140000C014010B596B000240F94DD
:101BA00010941194129413941C2108A81494FEF715
:101BB000D0FA20216846FEF7CCFA2948274901606F
:101BC0002321C0E9011440F2E731C0E90314446164
:101BD0008461FFF7F8FB08B1FEF77EFF4FF48050F9
:101BE0000F900FA91E48FFF744FC08B1FEF774FFE1
:101BF0001B48FFF7ECFD08B1FEF76EFF139413A925
:101C000017481494FFF7BEFB08B1FEF765FF60208C
:101C1000CDE9080404200A94CDE90B400D94082274
:101C200008A90F480E94FFF76AFD08B1FEF754FFAC
:101C300000944FF40050CDE90440029401940394C1
:101C4000694607480794FFF773FB08B1FEF744FFA6
:101C50000348FFF72DFD16B010BD0000002C014019
:101C6000D400002010B586B00024164800940194DA
:101C7000029403940494124905940160B321C0E9CD
:101C800001146321C0E903148461FFF79CFB08B1D0
:101C9000FEF722FF4FF48050009069460948FFF795
:101CA000E8FB08B1FEF718FF049404A90548059461
:101CB000FFF768FB002801D0FEF70EFF06B010BD4D
:101CC00000080040140100200C4810B50A490160CA
:101CD0004FF4E1314160002181600C22C160C0E914
:101CE00004128161C161FFF79AFD002803D0BDE8AD
:101CF0001040FEF7F1BE10BD003801405401002035
:101D0000FEE770472DE9F04107461C4615460E4692
:101D1000069800F049F82046094C2A463146E06012
:101D2000384600F015F8FEF7C7FD0649A068FEF733
:101D3000A5FAE062FEF72AFC03490860BDE8F081DD
:101D4000A000002000007A443C2C014070477047FE
:101D50002DE9F0410446104816460F46844218D239
:101D6000874216D2864214D20C480068FEF709FC5E
:101D70000B49FEF783FA054620460A4C29462060A7
:101D80003846FEF749FA606029463046FEF776FA93
:101D9000A060BDE8F081000000008080A00000206D
:101DA00000007A44A40100202DE9F041060017D07C
:101DB0000C4F3868FEF7E5FB04463046FEF7E1FBC2
:101DC0002146FEF75BFA084C054629466068FEF797
:101DD00023FA60602946A068FEF750FAA0603E60D2
:101DE000BDE8F081A0000020A4010020FEF776BF2E
:101DF00030B58FB028216846FEF7ABF914210AA848
:101E0000FEF7A7F901210804CDE90010002402948F
:101E100002250491CDE907504FF4E010099068467F
:101E2000FFF7E0F800B1FEE70F20CDE90A058020BA
:101E30000C90C000CDE90D0402210AA8FEF7E6FFD0
:101E4000002800D0FEE70FB030BD00000D4801684B
:101E500041F00101016041680B4A11404160016895
:101E60000A4A11400160016821F480210160416843
:101E700021F4FE0141604FF41F0181600449C00359
:101E800008607047001002400000FFF8FFFFF6FEF8
:101E900008ED00E00148FFF758BB000014010020E6
:101EA000F0B50268164B174C174D4FF0804798421B
:101EB00005D0B84203D0A04201D0A84203D122F0FD
:101EC00070064A683243984205D0B84203D0A04217
:101ED00001D0A84203D122F44074CA6822434C695D
:101EE00022F08002224302608A68C2620A6882622B
:101EF000984201D10969016301214161F0BD0000EF
:101F0000002C0140000400400008004010B5846827
:101F100042EA032224F47F440A432243826010BD34
:101F2000826822F070020A4342F007018160704724
:101F300030B5026A22F001020262026A43688469D3
:101F400024F073050C682C4322F002058A682A43AA
:101F50000A4DA8420BD122F00805CA6823F4407349
:101F60002A434D6922F004021D438B692B434360D1
:101F7000846149684163026230BD0000002C014069
:101F800030B5026A22F010020262026A4368846974
:101F90000D6824F4E64444EA05248D6822F020020A
:101FA00042EA05120B4DA8420ED1CD6822F0800204
:101FB00042EA05124D6923F4406343EA85038D69C3
:101FC00022F0400243EA85034360846149688163EB
:101FD000026230BD002C014030B5026A22F48072EA
:101FE0000262036A4268C46923F4007324F0730533
:101FF0000C682C438D6843EA05230C4DA8420ED192
:10200000CD6823F4006343EA05234D6922F440526E
:1020100042EA05128D6923F4806342EA05124260A8
:10202000C4614968C163036230BD0000002C0140F7
:1020300030B5026A22F480520262046A4268C369BF
:102040000D6823F4E64343EA05238D6824F4005425
:1020500044EA0534064DA84204D14D6922F4804279
:1020600042EA85124260C36149680164046230BD7E
:10207000002C014010B5036A046A24F001040462D4
:10208000846924F0F00444EA021423F00A020A43AB
:102090008461026210BD10B5036A23F0100303626D
:1020A0008369046A23F4704343EA023224F0A003F4
:1020B00043EA01118261016210BD00002DE9F04187
:1020C000044600680169E26821F44051114301614E
:1020D0002169A0680843616908432168CA6841F220
:1020E0000C639A430243CA6020684169A26921F4E3
:1020F0004071114341611E4920686425322688429F
:1021000002D1FEF729FF01E0FEF716FF00EBC00148
:1021100001EB001160686FF018078000B1FBF0F26E
:10212000B2FBF5F2B1FBF0F37A4303EB8202B1FBB1
:10213000F0F306EB0212B2FBF5F2B3FBF5F302F09B
:10214000F00202EB0312B1FBF0F3B1FBF0F0B0FBD5
:10215000F5F0784303EB800006EB0010B0FBF5F0E0
:10216000216800F00F0010448860BDE8F081000095
:1021700000380140FEE74100080218BF04200A0EA3
:1021800018BF40F001004FF07F4232EA010108BF62
:1021900040F00200012808BF052070470907090E1A
:1021A000002804DB00F1E02080F80014704700F004
:1021B0000F0000F1E02080F8141D704700214FF05F
:1021C0007E50FEF75BB8FDF7CFBF00210846FEF753
:1021D00055B861214FF0E040FEF78EB86FF05E0118
:1021E0000807FEF789B802E008C8121F08C1002AD4
:1021F000FAD170477047002001E001C1121F002A88
:10220000FBD170470149086070470000D0000020F2
:102210002DE9F041002500F05DF8144F00244FF443
:1022200080764FF0010800BF00F064F800223146CC
:102230003846FEF748FD0220FEF73AFC00F04AF867
:102240000A20FEF735FC31463846FEF737FD18B157
:1022500008FA04F02843C5B23220FEF729FC641CBA
:10226000E4B2082CE0D32846BDE8F0810008014024
:102270002DE9F041064600F03DF800240125DFF885
:1022800050802F0205FA04F030420FD000F032F8EF
:10229000002239464046FEF716FD0120FEF708FCF5
:1022A00000F018F83C20FEF703FC0BE000F022F8E9
:1022B000002239464046FEF706FD3C20FEF7F8FBBB
:1022C00000F008F8641CE4B2082CDBD3BDE8F08110
:1022D0000008014005484FF4807101600021416011
:1022E0000121816001460248FEF7F8BB94010020FD
:1022F0000008014006484FF48071016001214160EF
:10230000002181600221C16001460248FEF7E6BB60
:102310009401002000080140154803784FF47A72B8
:10232000042B0FD06421052B10D00A22062B16D0C7
:10233000072B1CD18088B0FBF2F102FB110000BF1B
:1023400000F044B88088B0FBF2F006E08088B0FB73
:10235000F2F302FB1300B0FBF1F0C0B2F0E78088AB
:10236000B0FBF1F301FB1300B0FBF2F0E8E77047BC
:102370004C000020144803784FF47A7273B1642142
:10238000012B0FD00A22022B15D0032B1BD1408822
:10239000B0FBF2F102FB110000F018B84088B0FB6E
:1023A000F2F006E04088B0FBF2F302FB1300B0FB52
:1023B000F1F0C0B2F0E74088B0FBF1F301FB13008D
:1023C000B0FBF2F0E8E770474C0000202DE9F04147
:1023D0000B490024DFF82C800E5C0125A1F12007B9
:1023E00025FA04F2324037F8141058F82400FEF7AA
:1023F0006AFC641CE4B2082CF2D3BDE8F081000052
:102400008C2A000854000020FEF770FCFFF7F0FC57
:10241000FFF764FBFFF7C0FBFFF756FCFFF722FC5A
:10242000FEF7FCF9FEF716FAFCE700002DE9F04D87
:102430000E460023A0F5000C4FF00071354684B025
:1024400002464FF07E5401EB45014FF07F48BCF14E
:10245000FE4F80F09F81B1F1804FC0F0DB81FE49DB
:102460000144B1F5005F40F2A78200F58021C90C5C
:1024700001F00F07C1F307117F39A2EBC15501EB42
:10248000030B3846FEF774F86FF00301FDF734FFD5
:102490004FF07E51FDF768FE014602902846FDF799
:1024A000B5FE019028460299FDF75EFE00F5006A30
:1024B0006FF30B0A009051460298FDF7A7FE2946DC
:1024C000FDF752FE02904FF07E500099FDF7D6FEC8
:1024D000014600900198FDF79FFE00F500656FF33F
:1024E0000B0528460299FDF797FE029051462846B3
:1024F000FDF792FE0199FDF78CFE0299FDF786FE2D
:102500000099FDF789FE014601902846FDF72CFE53
:1025100001460290FDF780FE8246D049FDF77CFE21
:10252000CF49FDF721FE5146FDF776FE8246002198
:102530002846FDF7E1FE009051460298FDF76CFE3B
:10254000054600210198FDF7D7FE2946FDF70CFE50
:10255000824601460098FDF707FE00F500656FF31F
:102560000B0529460098FDF751FE5146FDF7FCFD8D
:102570008246BC492846FDF74FFE0090BA495046B6
:10258000FDF74AFE8246B9492846FDF745FE514609
:10259000FDF7EAFD824601460098FDF7E5FD00F5EE
:1025A00000656FF30B0529460098FDF72FFE514695
:1025B000FDF7DAFD8246AE48784450F8371000EB5C
:1025C000C700019147684FEA0B10FDF7D1FF00905B
:1025D00039465046FDF7C8FD2946FDF7C5FD01996E
:1025E000FDF7C2FD0099FDF7BFFD00F5006B6FF32D
:1025F0000B0B58460099FDF709FE0199FDF706FE01
:102600002946FDF703FE3946FDF700FE5146FDF76A
:1026100000FE06F5006782466FF30B073946304629
:10262000FDF7F4FD002100900846FEF7E2F800F007
:102630000C0639465846FDF7EFFD054620F00040F0
:10264000B0F18B4F0ADDB8EB400F07D34FF08B4052
:1026500060F31E052F464FF0000A1FE03846009930
:10266000FDF782FD5146FDF7D7FD07465846009914
:10267000FDF7D2FD3946FDF777FD82460146284633
:10268000FDF772FD00F500676FF30B07394628462A
:10269000FDF7BCFD5146FDF767FD824631460C2033
:1026A000FEF7A7F851463846FDF75EFDFEF77BF8CA
:1026B00006460511FDF75CFF3946FDF7AAFD5146B8
:1026C000FDF752FD07466B49FDF7A6FD6A49FDF788
:1026D0004BFD3946FDF7A0FD6849FDF745FD39463C
:1026E000FDF79AFD0146664806F00F06784450F85B
:1026F0002600FDF791FD6349794451F82610FDF756
:1027000033FD6149794451F82610FDF72DFD05F19F
:102710007D01FC2908D22946FDF7EEFD04B02146D3
:10272000BDE8F04DFDF778BD05F1BF01B1F5BF7F04
:1027300016D82946FDF7E0FD2146FDF76DFD05465B
:10274000B8EB450F1AD068000CD02846FFF713FDF0
:10275000042808BFFFF742FD284604B0BDE8F08D0D
:10276000002D0BDA0220FFF74DFDFFF737FD014684
:10277000204604B061F31E00BDE8F08D0220FFF793
:1027800041FDFFF726FD0146204604B061F31E001F
:10279000BDE8F08DB1F1804F3CD300BF00F1FF41A7
:1027A000B1F1FE4F21D200BF20F00042C5F3C75166
:1027B00010467F290DDB9729BFF651AEC1F1960176
:1027C0004FF0010C0CFA01F1A1F1010C1CEA050F0C
:1027D00007D00120FFF716FD04B0BDE8F04DFFF76C
:1027E000F4BC294218BF294C39E641001CBF4FF008
:1027F0008071B1EB400F09D91B21FDF77DFD024629
:102800006FF01A0310F0004FCED128E6BCF1FE4F56
:1028100018D224E6B1F1007F0ED336F0004105D086
:1028200006F0004141F0FC552E46B7E7410018BFC5
:10283000B8EB400F78D8B1E7B1F1807F38BFA5F58C
:102840000006ABD320F000416FF0FF4C104C01EBC1
:102850000C03A3422FD31DE0001080C07EE24C3E4B
:10286000ABAAAA3E00B038423BAA3842D49AB8BBC1
:10287000DC040000FC596337C9FF753A1872313D1A
:10288000A80400005C04000010040000000080BFE9
:10289000FFFF3F0025F000439C44A4450BD3B0F15B
:1028A0007E5F18BF5FEA450C3ED0B1F1FF4F98BF85
:1028B000B3F1FF4F05D904B03146BDE8F04DFFF745
:1028C00082BCB0F1FF4F0FD0C5F3C7517F2909DBA0
:1028D000972911DAC1F19601012202FA01F14A1E8B
:1028E0002A4205D0002108E015F0004F55D128E01C
:1028F000294218BF012100D1022110F5000F14D088
:1029000020B3B0F1004F27D010F1814F4ED04FF0DF
:10291000FE41B1EB400F94BF01200020012101EBEB
:10292000E571884239D10CE040E015F0004F02D04B
:10293000012936D031E0012902BF3F4804B0BDE88B
:10294000F08D4FF0FF4004B0BDE8F08D15F0004071
:102950000ED104B0BDE8F08DB5F1FF4F1DD015F5D7
:10296000000F05D015F0004F14D009B1012907D090
:102970000220FFF747FC04B0BDE8F04DFFF71EBC96
:102980000220FFF73FFCFFF719FC04B080F0004085
:10299000BDE8F08D09B1012903D004B00020BDE8E5
:1029A000F08D04B04FF00040BDE8F08D04B04FF062
:1029B0007E50BDE8F08D00BF4FF07E51FDF726FC44
:1029C00005466FF00101FDF797FC1C49FDF721FC5E
:1029D0002946FDF721FC4FF07C51FDF71AFC074614
:1029E00029460846FDF718FC80F000403946FDF7FF
:1029F00013FC824612492846FDF70EFC0746114992
:102A00005046FDF709FC82460F492846FDF704FCB5
:102A10005146FDF7A9FB054601463846FDF7A4FBE4
:102A200000F5006B6FF30B0B59463846FDF7EEFBD4
:102A30002946FDF799FBECE5000080FFABAAAA3E12
:102A400000B0B8413BAAB841D49A38BB000000009E
:102A5000000000000102030406070809000000004E
:102A600001020304080010002000400001000200E1
:102A70000400080010002000400080000100020057
:102A8000040000040008001000200040FC60DAF29E
:102A900066B6BEE0FEF60000000000000000000088
:102AA0000000B33FB2BE7D3A00002E40DFCF513868
:102AB00000007E40BF51FABA00E0A44019DAC3BA60
:102AC00000E0C840C2ED8AB90040EB40CD1F2CBAEF
:102AD000001006412AFFFABA00C01541DFCFD137F6
:102AE00000D024419A97703A0050334189478E367E
:102AF00000404141E75B9D3800B04E41C00A98B9A3
:102B000000A05B41558F943A00306841DA92C0BA18
:102B10000040744162B3C63A0000803F00A0853F88
:102B200000908B3F00C0913F0030983F00F09E3FE7
:102B300000F0A53F0050AD3F0000B53F0000BD3F95
:102B40000060C53F0020CE3F0040D73F00C0E03FBF
:102B500000C0EA3F0020F53F000000007D36AC39A0
:102B60007D3C3839EBDCF438320A7E39124C263998
:102B70009B6AED39A4EE83397F661E39F6398A39AE
:102B80002B426539A48211395B991F39C3EECD39C7
:102B9000DDE7C637A5A22F390000803FC3AA853FD5
:102BA000C2958B3FD3C3913FF037983F32F59E3F9C
:102BB000D7FEA53F3F58AD3FF304B53FA408BD3F46
:102BC0002A67C53F8C24CE3FFD44D73FDFCCE03F92
:102BD000C7C0EA3F7D25F53FF82B00080000002024
:102BE000D4000000E6210008CC2C0008D40000200E
:102BF000DC040000F621000800A24A0400000000E6
:102C000000000000000000000000000000000000C4
:102C100000000000000000000000000000000000B4
:102C200000000000000000000000000000000000A4
:102C300000000000000C0140000000000000000047
:102C4000000000000000000000000000000801403B
:102C50000000000000000000000000000000000074
:102C6000000000000000000000000000000C014017
:102C70000000000000000000000000000000000054
:102C80000000000000000000000000000100000043
:102C90001000000000000000E80300000000000039
:102CA0000000000000000000000000000000000024
:102CB0000000000000000000000000000000000014
:0C2CC00000000000000000000000000008
:04000005080000ED02
:00000001FF
